:100000000C94BD010C94F5010C94F5010C94F501D0
:100010000C94F5010C94F5010C94F5010C94F50188
:100020000C94F5010C94F5010C94251E0C94F91E0A
:100030000C949E180C94F5010C94F5010C94F501A8
:100040000C94F5010C94F5010C94F5010C94F50158
:100050000C94F5010C9425190C94F5010C94F50100
:100060000C94F5010C94F5010C94F5010C94F50138
:100070000C94F5010C94F5010C94F5010C94F50128
:100080000C94F5010C94F5010C94F5010C94F50118
:100090000C94F5010C94F5010C94F5010C94F50108
:1000A0000C94F5010C94F5010C94F5011E00000070
:1000B0001F000000000020000000210000000000E0
:1000C00000001A0008001500170018000C001200AC
:1000D00013002F00140016000700090000000D0097
:1000E0000E000F003300330000000000060019006E
:1000F0000A001100100000000000000000010101D2
:1001000001010101010102020202020202020203D4
:1001100003030303030303040404040404040505A4
:100120000505050606060606070707070708080867
:1001300008090909090A0A0A0B0B0B0C0C0C0D0D16
:100140000D0E0E0E0F0F0F101011111112121313AE
:100150001414151516161717181819191A1A1B1B27
:100160001C1D1D1E1E1F2020212222232424252683
:1001700026272829292A2B2C2D2D2E2F30313232BB
:10018000333435363738393A3B3C3D3E3F404142C7
:10019000434445464748494A4C4D4E4F50515354AD
:1001A000555658595A5B5D5E5F6162646566686961
:1001B0006B6C6D6F7072737577787A7B7D7E8082E1
:1001C000838587888A8C8E8F91939596989A9C9E2A
:1001D000A0A2A3A5A7A9ABADAFB1B3B5B7BABCBE3A
:1001E000C0C2C4C6C9CBCDCFD1D4D6D8DBDDDFE207
:1001F000E4E7E9EBEEF0F3F5F8FAFDFF1C0350003D
:1002000065007200690064006F00740020005300F4
:10021000740065006E006F00000022035700650047
:100220006900720064004C006900740074006C0086
:1002300065004B0065006500620073000000040368
:10024000090409027800040100A0FA090400000171
:10025000030101000921110100012240000705816D
:100260000308000109040100010300000009211135
:10027000010001226D0007058203200001080B0226
:100280000202020100090402000102020100052429
:10029000001001042402020524060203070583035B
:1002A0000800FF09040300020A0000000705050218
:1002B0001000050705840210000512010002EF027C
:1002C0000108EDFE606001000102000105010980E6
:1002D000A101850319012AB700150126B700950170
:1002E00075108100C0050C0901A101850419012ABE
:1002F000A002150126A002950175108100C005011C
:100300000906A1018506050719E029E71500250161
:100310009508750181020507190029EF15002501CF
:1003200095F07501810205081901290595057501EA
:100330009102950175039101C005010906A101050E
:100340000719E029E7150025019508750181029537
:1003500001750881010507190029FF150026FF0016
:10036000950675088100050819012905950575018F
:100370009102950175039101C00011241FBECFEFBA
:10038000DAE0DEBFCDBF04B603FE18C080911903CA
:1003900090911A03A0911B03B0911C038730904BDE
:1003A000A740B04B59F41092190310921A031092FF
:1003B0001B0310921C03E0E0F8E3099511E0A0E0B4
:1003C000B1E0E6EFF5E402C005900D92AA3AB1075C
:1003D000D9F723E0AAEAB1E001C01D92A931B20722
:1003E000E1F70E9401110C94E3220C94000008959F
:1003F00081E0089581E008950E94FA01089508952A
:100400000E94FF010895A5E0B0E0E9E0F2E00C945D
:100410005D2249835A833091B10189819A813111DA
:1004200019C0662399F0222389F00E94E307182F50
:10043000682F89819A810E94BF0769817A81812F03
:100440000E94550E2596E3E00C9479220E94D10774
:10045000182FF3CF0E94E30769817A81F1CFFC0165
:10046000262F408151816281738184810E94030221
:10047000089581E00895CF93DF93EC0160E00E943E
:100480002F02BE010E940002DF91CF9108950E94C9
:10049000950F08950E94980F089508950E948A0666
:1004A0000E944D022FEF84E39CE021508040904059
:1004B000E1F700C0000008950E944E020E94491911
:1004C00008950E944E020E946D1908950F931F9384
:1004D000CF93DF938C0161E00E942F02EC01B80101
:1004E0000E94FC01811106C080E0DF91CF911F9135
:1004F0000F910895B801CE010E944A118823A1F3FB
:10050000B801CE010E94E716882371F3B801CE012D
:100510000E94EB14882341F3B801CE010E945916C2
:10052000882311F3B801CE010E9446148823E1F21A
:10053000F8018281882361F0CB35FDE5DF0701F109
:1005400058F4C115ECE5DE0791F0CF3DDC4591F0A4
:10055000C8010E94F801C9CFCD358DE5D80769F0F3
:1005600090F0C83ADD45A1F70E946102BDCF0E941C
:100570005C02BACF0E949D0CF7CF0E94DB0BE8CF44
:100580000E94E50BE5CF0E94E90BE2CF0E947A18AA
:100590000E94E30208950E94E7020E947F180895D6
:1005A00008950E94D002089581E008950E94D40227
:1005B00008950895CF93C82F0E94D1028C2F0E94D6
:1005C000D602CF91089580E00E94DA0208950E9439
:1005D00043170E94DA020895CF930E944317C82F51
:1005E0008091AC018C1779F0C093AC010E940A197C
:1005F0006093AD017093AE018093AF019093B00111
:100600008C2F0E94DA02CF910895ABE0B0E0EBE0CE
:10061000F3E00C945E224F83588769877A878B8733
:1006200061110E94260B1E821D8285E0FE01379615
:10063000DE01119601900D928A95E1F78C819D81E2
:10064000892B61F449815A816B817C818D819E81E6
:100650000E944F0A2B96E2E00C947A2289819A81BB
:1006600089238F3F79F3CE0101960E9439028111CF
:10067000E9CFF0CFFC01808191810E941508089597
:10068000CF93C82F8823C9F08238C9F40E9443173A
:1006900081FD13C089E30E94DE0A0E94470B2FEF01
:1006A00087EE93E0215080409040E1F700C00000C9
:1006B00089E30E94E60A0E94470BCF910895833890
:1006C000A1F40E94431780FDF8CF83E50E94DE0A63
:1006D0000E94470B2FEF81EE94E021508040904024
:1006E000E1F700C0000083E5E4CF8438A1F40E9464
:1006F000431782FDE2CF87E40E94DE0A0E94470B87
:100700002FEF81EE94E0215080409040E1F700C04F
:10071000000087E4CECF8CEF8C0F813A90F46C2FE1
:1007200080910001909101010E94AA17882329F06D
:100730008C2F0E94E60A0E94470B8C2F0E94DE0A33
:10074000BACF80E28C0F883048F4C77081E001C0D6
:10075000880FCA95EAF70E94090BADCFEBE5EC0FC5
:10076000E33040F4F0E0EB59FE4F808190E00E94CE
:100770006A17A3CFC85AC73108F09FCFEC2FF0E01B
:10078000EE0FFF1FE95CFE4F808191810E94801770
:1007900094CF882309F44DC0823879F40E9443171E
:1007A00081FF47C089E30E94DE0A0E94470B89E36C
:1007B0000E94E60A0E94470B0895833859F40E946C
:1007C000431780FF36C083E50E94DE0A0E94470B74
:1007D00083E5EECF843859F40E94431782FF29C085
:1007E00087E40E94DE0A0E94470B87E4E1CF9CEF7A
:1007F000980F913AE8F290E2980F983050F4877091
:1008000091E001C0990F8A95EAF7892F0E940F0B9A
:10081000D1CF9BE5980F933028F490E080E00E94C0
:100820006A170895885A873120F490E080E00E948A
:10083000801708951F93CF93DF93182FEB010E9429
:100840004003209739F4812F0E94C903DF91CF9193
:100850001F9108958FE99FE00197F1F700C0000014
:100860002197EFCF70E060E0893311F460E570E02C
:100870000E941A040895882321F00E94090B0E9407
:10088000470B0895882321F00E940F0B0E94470B0D
:100890000895B0E0A0E0EFE4F4E00C9457226C017E
:1008A000D62FC72FFC011281F580F2949FE0F92228
:1008B0000E94FF0AE82E8823B9F0E12E1123A1F04F
:1008C0008C2F807F803421F080E28D0F8830D0F033
:1008D0008091980282FF16C082E00E94AA0B0E94BB
:1008E000FF0A91E0E82EE926BC2EB2948FE0B822F0
:1008F000FBE0FB1508F468C0EB2DF0E0EB51FD4D7B
:100900000C944822E12CF0CF0C2F0F70C07F11F017
:100910000295007F112399F0002359F080E28D0F9A
:10092000883010F0D11107C0802F0E94090B0E945F
:10093000470B8D2F41C0802F0E94190BF8CF8D2FB0
:100940000E94C903002309F43FC080E28D0F883064
:1009500010F0D11104C0802F0E940F0B03C0802F14
:100960000E941F0B0E94470B2FC00C2F0F70C07FDF
:10097000C03211F00295007FDD2381F0D13009F4FF
:1009800063C0112309F46DC0FF2009F463C0F601B0
:10099000858180FFCECF8F7085835CC08091980267
:1009A00082FD33C0112359F0002329F0802F0E94CB
:1009B000090B0E94470B80E00E94400305C080E0C5
:1009C0000E94C9030111C7CFEB2DE850FF0B3497EC
:1009D00020F40E9443170E94DA02EE2089F00E9460
:1009E000FB0A80FD0DC0F60112820E94F50A0E94EA
:1009F0001D07C6010E944E060E94F50A0E942D079F
:100A0000CDB7DEB7E9E00C947322112389F0F11021
:100A100006C00E94290B802B0E943B04D5CF21E009
:100A2000F212F7CF0E94290B802B0E94300BCCCF03
:100A3000F11006C00E943D0B802F0E944204C4CFDB
:100A400031E0F31609F2F6CF112331F085E08F156E
:100A500008F4BACF802FE0CF94E09F1508F4B4CF0C
:100A6000EBCFFF2049F3D93349F4FFEF27EE33E012
:100A7000F15020403040E1F700C000008D2F0E946F
:100A8000C903A2CF8C2F86958695837069F081303B
:100A900009F09ACF8D2F9C2F9370111102C090E016
:100AA00080E00E94801790CF8D2F9C2F93701111A2
:100AB00002C090E080E00E946A1786CF8C2F83707E
:100AC000A1F5111181CF4D2F429546954770440FE6
:100AD000440F2D2F2F7030E0042E02C0220F331F41
:100AE0000A94E2F790E080E0D4FF09C08FE090E044
:100AF00002C0880F991F4A95E2F780959095C69598
:100B0000C695C370822B932BC23049F058F4C13084
:100B100019F00E94EB0658CF0E94E20655CF0E94C2
:100B2000F40652CF0E94DF064FCF8695112311F0B5
:100B30008C2F8170882309F447CF4D2F429546951D
:100B40004770440F440F2D2F2F7030E0042E02C049
:100B5000220F331F0A94E2F790E080E0D4FF09C02F
:100B60008FE090E002C0880F991F4A95E2F78095C8
:100B70009095C695C695C370822B932BC23049F0D1
:100B800058F4C13019F00E9458071ECF0E944F0739
:100B90001BCF0E94610718CF0E94030715CFCF70AB
:100BA000112329F08C2F0E941D078D2F35CF8D2FFB
:100BB0000E9442048C2F0E942D0706CFD23F51F194
:100BC00060F4D03FB9F0D13F81F0112309F449C05E
:100BD000F110AFCE8C2F8F7121C0D33F11F1D43FD4
:100BE000A1F78091980282FD26C08C2F8F7111236E
:100BF00011F314C0112349F084E08F1508F4E4CEFA
:100C00008C2F8F710E943F07DFCE95E09F1508F46F
:100C1000DBCEF6CF8C2F8F711111CDCF0E941D0727
:100C2000D3CE112329F08C2F8F710E941107CCCEC7
:100C30000E940C07C9CE112349F0CF718C2F0E945E
:100C40001D0763E08C2F0E948C0BBECE81E00E94BA
:100C5000AA0BE1E0EF1508F0B7CE82E00E94AA0BE4
:100C6000B3CEF11000CF8C2F8F71A5CF0F931F93B0
:100C7000CF93DF93EC01688179818A810E942008FB
:100C80008C010E946A070E94DE06B801CE010E9414
:100C90004904DF91CF911F910F910895CF93DF9376
:100CA000EC018B819C81892B29F088819981892392
:100CB0008F3F51F4DF91CF910895CE010E94360607
:100CC000CE010E943B02F6CFCE010E946602811146
:100CD000F4CF0E94FF0A882369F38A81882351F3A5
:100CE0008091980282FFE6CF82E00E94AA0BE2CFB9
:100CF00090E080E00E946A1790E080E00E948017F8
:100D00000E94260B0E94470B08950E94EE0A0E9443
:100D1000780608950E94160B0E9485060895929504
:100D20009F70963091F058F4925F9F70923058F413
:100D3000803F19F030F4883E30F481E008959A5FE6
:100D4000F4CF843FD1F380E00895883EB0F3813F33
:100D5000D1F7F3CFFC0183819481892B29F0808125
:100D6000918189238F3F11F480E0089580819181E2
:100D70000E9415080E948F060895A5E0B0E0E3ECFC
:100D8000F6E00C945E222596E2E00C947A22A6E02E
:100D9000B0E0EDECF6E00C945E222696E2E00C94D6
:100DA0007A2208950E94D10608950E94D206909357
:100DB000C9018093C8010E947806089508950E9491
:100DC000D50608952091C8013091C901822B932B3B
:100DD0000E94D50608952091C8013091C90182234F
:100DE00093230E94D50608952091C8013091C9012E
:100DF000822793270E94D50608950E94D106089560
:100E00000E94FD0608950E9400079093C7018093F9
:100E1000C6010E947806089590E080E00E940307D2
:100E2000089521E030E0A90102C0440F551F8A95C2
:100E3000E2F7CA010E940307089521E030E002C0F2
:100E4000220F331F8A95E2F78091C6019091C70166
:100E5000822B932B0E940307089521E030E002C00B
:100E6000220F331F8A95E2F7209530958091C601B5
:100E70009091C701822393230E940307089521E0E4
:100E800030E002C0220F331F8A95E2F78091C6013D
:100E90009091C701822793270E940307089520910C
:100EA000C6013091C701822B932B0E94030708953E
:100EB0002091C6013091C701822393230E9403072A
:100EC00008952091C6013091C701822793270E947F
:100ED000030708950895262F277091E001C0990F08
:100EE0002A95EAF723E0769567952A95E1F7660F4C
:100EF000771F660F771FFA01E60FF71F50E040E0FB
:100F0000682F70E08191DF0111979B01042E02C0D0
:100F1000369527950A94E2F72170219528272923F1
:100F200028272C934F5F5F4F4430510559F70895A0
:100F3000A82FA77023E0969587952A95E1F7880F4B
:100F4000991F880F991FFB01E80FF91F50E040E03F
:100F500080E0219130E00A2E02C0369527950A9450
:100F6000E2F721703327042E01C0220F0A94EAF71A
:100F7000822B4F5F5F4F4430510559F70895262F5C
:100F8000943070F48A3060F4682F70E08AE0989FA3
:100F9000600D711D112442EB51E0822F0E946B07FE
:100FA0000895292F943068F48A3058F490E062EB69
:100FB00071E03AE0239F800D911D11240E94980753
:100FC000089580E00895B0E0A0E0E9EEF7E00C9429
:100FD00057227C010091C6011091C7018091C80180
:100FE0009091C901082B192BCFE0D0E0CC24C394F9
:100FF000D12CBC2EC6010C2E02C0880F991F0A945A
:10100000E2F780239123892B49F4219790F7B12CA3
:101010008B2DCDB7DEB7E9E00C947322B7018C2F8E
:101020000E94700E019789F3F3CFCF93DF93EC0109
:101030000E94E307BE010E94700EDF91CF910895D8
:101040001F93CF93DF93EB019091B101992339F076
:10105000CB010E941508DF91CF911F91089588233D
:1010600069F0CB010E94E307182F682FCE010E9480
:10107000BF07BE01812F0E94700EEDCFCB010E94F1
:10108000D107182FF6CF1F93CF93DF93C091CA01DA
:1010900016E08091CB018C1304C0DF91CF911F919A
:1010A0000895D0E01C9FF0011D9FF00D1124E45322
:1010B000FE4F4081518162817381848195810E94BC
:1010C000C7062196C770E5CF4091FC015091FD0104
:1010D0006091FE017091FF018091000290910102E8
:1010E0000E94C70608951F93CF93DF93809101025A
:1010F000807F09F049C08091FE01882309F444C033
:101100008091CA01C091CB016091FC017091FD01F9
:10111000A091FF01B0910002D62FD72316E0C81787
:1011200099F190E0109711F0DF3F19F40196877064
:10113000F6CF189F9001199F300D1124F901E45347
:10114000FE4F41814713F2CF40814613EFCF4281DA
:101150004111ECCF438154814A1B5B0B483C510544
:1011600028F7809101028F70806180930102F9015C
:10117000EF52FE4F80818F70806180838CEF91E011
:101180000E944E060E944308DF91CF911F9108955F
:10119000A1E1B0E0EEECF8E00C9456228C0185E081
:1011A000F801DE011D9601900D928A95E1F7F80194
:1011B000E2808CEFC82E81E0D82E6091FF01709103
:1011C00000026115710509F44EC19091FC01209156
:1011D000FD01892F82238F3F09F445C14081518150
:1011E000A380B480F090FE01F501E61BF70BFF2011
:1011F00009F4EAC080910102382F307FE83CF10504
:1012000008F0A3C031116DC0FE2C251316C0941335
:1012100014C0E11012C08F708061809301020E949F
:101220006408C6010E944E0680910102F801858380
:101230008F2D6196EAE00C947222A114B10429F07A
:10124000842F85238F3F09F027C180E0F82FF170AC
:10125000DF2E80FF3CC08091CA012091CB0136E097
:10126000821315C04D875E878D859E850E94150867
:10127000292F22952F702230F0F0243018F59F701E
:10128000F1F0F8019581907FD1F4D12C1EC090E04F
:10129000389FF001399FF00D1124E453FE4F618116
:1012A000651306C06081641303C06281E6120FC03B
:1012B00001968770D5CF9F7011F0882331F3805E3F
:1012C000883018F3C8010E944E06FD2CB1CFEE20E5
:1012D00009F4AECF80910102816080930102F12C6C
:1012E000A7CF251306C0941304C0F801EE2009F41B
:1012F00087C0C8010E94AA06882319F1EE2009F1CF
:1013000080910102803270F02091FC013091FD014A
:1013100038872F831986BB86AA868C87CE010796CD
:101320000E944E0686E0F801ACEFB1E001900D920C
:101330008A95E1F70E9473080E946408FF24F394E1
:1013400077CFC8010E944E06F9CF311113C07A2D14
:10135000B98AA88A6E2D89890E94BD068CEF91E01A
:101360000E944E0686E0F60111928A95E9F70E94E6
:101370006408B5CF25130FC094130DC0E1100BC046
:10138000F8018583C8010E944E0686E0F60111929D
:101390008A95E9F74DCFC8010E94AA06882389F2F1
:1013A000EE2079F280910102803208F4BBCF2091C7
:1013B000FC013091FD013A8329831B82BD82AC82FE
:1013C0008E83CE010196ACCFE83CF10508F03EC01B
:1013D000FE2CEE2009F4B5CF25132AC0941328C0A3
:1013E0008091010280FD1BC0982F907FC1F0F80111
:1013F0008583903F31F0982F907F905F8F70892B7D
:101400008583C8010E944E0686E0F801ACEFB1E08A
:1014100001900D928A95E1F70E94640809CF86E059
:10142000F801ACEFB1E001900D928A95E1F700CFA1
:10143000C8010E94AA06811175CF809101028160C6
:1014400080930102C8010E944E06F2CE7A2DB98A1D
:10145000A88A6E2D89890E94BD0686E0F601119248
:101460008A95E9F7D9CFEE2009F46BCFC8010E9425
:10147000AA06F82E882309F464CF86E0F801ACEFC1
:10148000B1E001900D928A95E1F78CEF91E00E9416
:101490003A030E947308C0CF81E08E25D7CEACE01E
:1014A000B0E0E5E5FAE00C945D224F835887698748
:1014B0007A878B879C87CE0107960E94C80888236D
:1014C00069F08A859B85892B39F04F815885842F57
:1014D00085238F3F09F06BC016E05FC086E0FE01F8
:1014E0003796DE01119601900D928A95E1F78A8573
:1014F0009B85892B89F38F81988589238F3F61F3A1
:101500002091CB0130E0C901019687709927409165
:10151000CA014817190671F40E948A061092CB017D
:101520001092CA0186E0ECEFF1E0DF011D928A958E
:10153000E9F7D2CF96E0929FD001939FB00D11248E
:10154000A453BE4FFE01319601900D929A95E1F79A
:101550008093CB010E944308BFCF819FC00111241B
:1015600084539E4F0E94C8088823E9F0E091CA0185
:101570001E9FF0011124E453FE4F4081518162818E
:101580007381848195810E94C7068091CA0190E091
:101590000196877099278093CA018091CA01909122
:1015A000CB018913DACF2C96E3E00C94792269857C
:1015B0007A858B859C850E94C7068ECF682F809187
:1015C0000001909101010E942A180895682F8091CE
:1015D0000001909101010E94381808958091000146
:1015E000909101010E9446180895809122028595EC
:1015F0008595859508958091220287700895909130
:101600002202977081E009F480E0089580914502FC
:10161000089590914502892B809345020895809505
:1016200090914502982390934502089510924502A7
:10163000089590914402892B8093440208958095E7
:10164000909144029823909344020895109244028A
:10165000089580912302089508950E942C0B089507
:101660009091980292FF08C090912302981721F060
:10167000809323020E942D0B0895809123028823DA
:1016800029F01092230280E00E942D0B0895CF9341
:10169000DF93E0910001F091010180914502808388
:1016A000E0910001F0910101808190914402892B29
:1016B000808390912302992381F0E0910001F091C1
:1016C00001018081892B808380910001909101012B
:1016D0000E94961781110E943D0BC0910001D0918C
:1016E000010140E250E062E072E0CE010E948522FA
:1016F000892B59F080E2FE01A2E0B2E001900D9248
:101700008A95E1F7CE010E945017DF91CF9108959D
:1017100008950E94880B08959091980292FF11C03D
:1017200098E0899F90011124622B609322020E940D
:101730001D07809122028595859585950E94890BCC
:1017400008950E941D0708951092220280E00E94D1
:10175000890B08959091220280958923809322021B
:10176000282F277091F4282F082E000C330B921786
:10177000130659F09091980292FF07C085958595C0
:1017800085950E942D070E94A40B089590919802C0
:1017900092FB222720F9281769F080FB92F9909399
:1017A000980280919702909198020E94170C82E013
:1017B0000E94AA0B08958091980282FB882780F9E5
:1017C00091E089270E94C60B089581E00E94C60B14
:1017D000089580E00E94C60B08956FEF7FEF90E0C0
:1017E00080E00E94CD22089590E080E00E94A9222E
:1017F00021E0883E9E4F09F020E0822F089582E08C
:1018000090E00E949B22089583E090E00E949B223A
:101810000895CF9384E090E00E949B22C82F82E23B
:1018200090E00E949B22982F8C2FCF910895CF9308
:10183000C92F682F84E090E00E94AF226C2F82E2D3
:1018400090E00E94AF22CF910895AB01BC018FE0E0
:1018500090E00E94C1220895AB01BC0183E190E0B9
:101860000E94C122089560E070E0CB010E942C0C20
:10187000089560E070E0CB010E94250C0E94330CBB
:10188000089568EE7EEF90E080E00E94CD2260E057
:1018900082E090E00E94AF2260E083E090E00E944E
:1018A000AF221092C9011092C80160E084E090E07C
:1018B0000E94AF2264E082E290E00E94AF2260E0EA
:1018C00085E090E00E94AF2260E086E090E00E9418
:1018D000AF226FEF87E090E00E94AF2240E050E03F
:1018E000BA0188E090E00E94C12260E08DE090E0C3
:1018F0000E94AF2240E050E0BA0188E190E00E94EF
:10190000C12260E087E190E00E94AF2240E050E019
:10191000BA018CE190E00E94C12270E060E080E2B8
:1019200090E00E94CD2240E050E0BA0188E190E0D2
:101930000E94C1220E94390C08950E94410C089512
:10194000682F8EE090E00E94AF2208950E940A194D
:1019500060935402709355028093560290935702FD
:1019600060935002709351028093520290935302FD
:101970000895089508950E94BA0C089508950E944C
:10198000BE0C08958AE59FE00E9439170E94B90CA9
:101990000E94BB0C089581E008950E94CB0C08952D
:1019A000089508950E94D00C0E94D10C08950E94C1
:1019B000760F0E94D90208950E94F5180E944910DE
:1019C0000E94D70C0E940F140E94FE1A0E94BF0CA6
:1019D0000895AAE0B0E0EFEEFCE00C9453220E94E0
:1019E0005F1028E4822E22E0922E640110E0F601BE
:1019F000E190F1906F01812F0E949B0F1F5F1430C7
:101A000009F449C0E816F90691F38091580281FD66
:101A10000E94A40F0E94CD0C782E10E0812F0E940E
:101A20009B0F7C01F401A190B1904F018A159B0599
:101A300061F1A826BF2400E0CC24C394D12CC501B9
:101A40008C219D21892BC1F07720B1F00E831F835B
:101A500021E0C7018C219D21892B09F420E02887F2
:101A60000E94FE188160782F9A8789874E815F8156
:101A700068858A850E9405030F5FCC0CDD1C0A3047
:101A8000F1F6F4013297F182E0821F5F143031F6F3
:101A90000E94A60C22C0E816F90609F0B6CF0E94F3
:101AA000FE188C0180914602909147020817190791
:101AB000A1F08FEF89838A831B820E94FE188160C8
:101AC000782F9D838C8349815A816B818D810E94FF
:101AD000050310934702009346020E94EC022A96E7
:101AE000EDE00C946F22CF93DF930E94750EEC0112
:101AF000811522E59207E8F5811531E5930708F095
:101B0000A3C0883E910510F5803E910570F5883A96
:101B1000910570F4853A910508F078C081309105FF
:101B200021F1009711F1049700F5D0E0C0E01DC04D
:101B30008F3B9105D0F7C85AD0E0CC0FDD1FC859B4
:101B4000DE4F0990D881C02DD4640FC0811540E5C7
:101B5000940708F066C0C11580E4D80708F05EC09D
:101B6000CE019A9581159F4100F7CE01DF91CF916B
:101B70000895811536E5930718F5811545E5940715
:101B800008F07BC0C11584E5D80708F071C09E013C
:101B9000237033279C2F96959695C115D34508F44D
:101BA00058C0C1E0D0E002C0CC0FDD1F2A95E2F79B
:101BB00030E2939FC0011124C82BD92BDA68D5CF0E
:101BC000C1158AE5D80778F4C11529E5D20708F0D0
:101BD0005EC0C11538E5D30708F4A7CFDC2FCC27AA
:101BE000C06FD06AC2CFCE0190568115904208F0E6
:101BF0009CCF8D2F8F710E94170F90E0982F882710
:101C000088279F719C012C2BE9013FC0C55AD0E069
:101C1000CA56DE4FC881D0E0D064A7CFDF70D06A4B
:101C2000A4CF8370992721E030E002C0220F331F38
:101C30008A95E2F7C695C69580E2C89FE001112417
:101C4000C22BD32BDD6891CFD82FCC27C16FD06AA0
:101C50008CCFC1E0D0E002C0CC0FDD1F2A95E2F7A7
:101C600020E2929FC0011124C82BD92BDC687DCFC4
:101C7000DC2FCC27C46FD06A78CF0E94170FC82FF3
:101C8000D0E0DC2FCC27CC27DF71D0626ECF8C2F39
:101C90008F700E94170F34E0D695C7953A95E1F7FB
:101CA000CF709C2FEC01D06960CF972F7430A8F4CF
:101CB0006A3098F470E02AE0929F600D711D112443
:101CC000FB0198E2899FE00DF11D1124EE0FFF1F2B
:101CD000E455FF4F85919491089580E090E0089538
:101CE0000E94550E0E94730D089582389105B9F136
:101CF000B0F48133910509F47DC048F4893291052F
:101D000009F46DC08A32910509F47BC008958533CA
:101D1000910509F45FC08933910509F10895833E67
:101D20009105D9F138F4803E910529F1823E910563
:101D300079F10895863E9105D9F1873E910509F420
:101D40003EC0843E910541F52091980221FF24C0B8
:101D50008091970284FD19C087EE90E0089520914C
:101D60009702237009F05AC02091980223FF14C0F3
:101D700089E290E008952091970220FD38C03091CB
:101D8000980230FF09C024FF43C090E080E008952E
:101D90002091970222FDF7CF08952091970222FD0E
:101DA0003AC03091980230FD39C024FFF5CFEDCF15
:101DB0002091970223FFF0CF24FDE7CFCDCF2091D4
:101DC000970223FD2EC03091980231FFEECF84EEB2
:101DD00090E008952091970225FFDECFC9CF209192
:101DE000970225FD21C02091980223FFD5CF89E3DA
:101DF00090E0D2CF2091970226FFCECF8AE290E0EA
:101E000008952091970226FFC7CF81E390E00895BF
:101E100083EE90E0089582EE90E0089580EE90E0E9
:101E2000089586EE90E0089585E390E008959091FE
:101E3000970292FF06C0282F28712830F9F4877F77
:101E4000846093FF06C0282F28712831F1F4877E23
:101E500084612091980220FF06C0382F38713830F5
:101E6000D9F4877F816021FF06C0282F287128318F
:101E7000D1F4877E816194FD877E0895282F247197
:101E80002430F9F68B7F8860DCCF282F2471243131
:101E900001F78B7E8861DDCF382F3171313019F732
:101EA0008E7F8860E0CF282F2171213121F78E7E2F
:101EB0008861E1CF80E008950E94ED0B08950E94B3
:101EC0005F108FE39CE90197F1F700C000000E94CA
:101ED0005F1080E00E949B0F80FF04C00E945C0F97
:101EE0000E94491908950E945F0F08950E94F40B03
:101EF000811102C00E949D0C0E94FF0B809358022A
:101F00000E94090C90939802809397020E94730F8D
:101F10000E94040C90E00E94DF068091C60190911F
:101F2000C7010E940007089508950E94940F089524
:101F30000E94F7010895E82FF0E0EE0FFF1FEF5524
:101F4000FD4F808191810895089580EA8A95F1F787
:101F5000089500C008950E94A50F0895F894E82FF1
:101F6000E295EF70F0E031A1282F2F7081E090E032
:101F700001C0880F2A95EAF7982F9095932391A393
:101F800092A1892B82A378940895CF93DF93C9E916
:101F9000D1E089918F3F11F00E94AE0F81E0C33AEA
:101FA000D807B9F784EF0E94AE0F85EF0E94AE0FFD
:101FB00086EF0E94AE0F87EF0E94AE0FDF91CF91A8
:101FC0000895B0E0A0E0E7EEFFE00C945622D82E92
:101FD000E92EF62E8A01C62FD0E0CE0187569E4FFD
:101FE0005C01EC0128812F3F09F449C0F894E22FED
:101FF000E295EF70F0E031A12F7081E090E001C038
:10200000880F2A95EAF7932F982B91A392A1809598
:10201000892382A378940E94A90FA3EAB1E0ED2D51
:10202000FE2D67EA71E0E12C6801C094D0944D91D7
:10203000808191814F3F41F1242F22952F7030E014
:10204000E90128A130E04F7002C0359527954A95E7
:10205000E2F720FD19C0802B912B91838083EE2421
:10206000E39432966A177B0711F7F50180818F3F61
:1020700011F00E94AE0F6E2D8F2D0E94AB0FCDB7C9
:10208000DEB7EAE00C9472228C219D21918380833B
:10209000E8CF0E94C50F88E0E1EAF2E0DF01982F67
:1020A0001D929A95E9F7E9E9F2E0DF011D928A9520
:1020B000E9F784E00E94B3100E9447020895CF928E
:1020C000DF92FF920F931F93CF93DF93CDB7DEB7CD
:1020D00028970FB6F894DEBF0FBECDBF8E010F5FFD
:1020E0001F4F88E0F80111928A95E9F7F12CCC2472
:1020F000C394D12CA6016F2DC8010E94E10FF39467
:10210000CC0CDD1CFAE0FF12F5CF48E050E0B8013E
:1021100089E992E00E94852221E0009709F420E0FD
:10212000892B41F088E0F801A9E9B2E001900D9215
:102130008A95E1F744E061EA72E089E992E00E9461
:10214000B410182F0E944A02812F28960FB6F894D7
:10215000DEBF0FBECDBFDF91CF911F910F91FF90DA
:10216000DF90CF9008950895CF92DF92EF92FF9283
:102170001F93CF93DF936C017B01C42F222349F07F
:1021800081E080935B020E94FE1890935A02809334
:10219000590210915B0211110AC010E0812FDF91EA
:1021A000CF911F91FF90EF90DF90CF900895809195
:1021B000590290915A020E941619059770F3D0E0C7
:1021C000CC0FDD1FAE01B601C7010E948522892B0D
:1021D00041F0AE01B601C7010E94922210925B024B
:1021E000DDCF10E0FBCF0E94751B0E94DC0C0E942B
:1021F000821B08950E94871B0E94E90C0E94A11B6C
:1022000008950E9497180E945B1B0E94C20C0E94B6
:10221000F3100E94FA100E94D20CFBCFCF93DF93F1
:1022200080915D02806880935D02CDE5D2E0899166
:102230000E941E1B82E0C336D807C9F7DF91CF91F9
:102240000895282F67E00E94282290E0FC01E35ABD
:10225000FD4FAC0133E0440F551F3A95E1F7841B65
:10226000950B820F911D26E030E0281B390B81E091
:1022700090E0AC0102C0440F551F2A95E2F780811F
:10228000842B808380E0089581E0089581E00895A3
:1022900081E00895EF92FF920F931F93CF93DF9306
:1022A0007C01EB018C011A550034110550F48B812F
:1022B0009C81892B31F08881998189238F3F09F096
:1022C0004DC081E02BC000915C028B819C81892BE9
:1022D00029F08981988189238F3F79F501500093F6
:1022E0005C022DE532E040E0BE01C7010E944611CC
:1022F0008823E9F180915C021816CCF110925C02FF
:102300006DE572E080E00E94441181110CC0EDE5A2
:10231000F2E096E0DF011D929A95E9F7CDB7DEB7BE
:10232000E6E00C9476220E940E11EDE5F2E086E0E4
:10233000DF011D928A95E9F71AC08A81882371F21C
:102340000F5F00935C028E2D0E9421112DE532E07B
:1023500040E0BE01C7010E94461109C0C7010E94AA
:102360004811882321F00A32110508F4ACCF80E02F
:10237000D5CFEF92FF920F931F93CF93DF93EB0193
:10238000E82FD1110EC0442321F0F0E0E450FF4FBC
:10239000E4916E2F7E2F8E2FCDB7DEB7E6E00C9442
:1023A00076220D2F10E0282F30E0442329F024500E
:1023B0003F4FF901249130E0F6E0CF9FC001112496
:1023C000EFEFF0E0BF010E943422AB018C2F90E0D0
:1023D000880F991FA5E5A49FB001A59F700D11243A
:1023E000861B970B982F990F980FBF01601B710BDD
:1023F000629FD001639FB00D729FB00D11248B2F8F
:102400009D9FB0011124672F7727EF01C61BD70BC3
:10241000BE01629FE001639FD00D729FD00D112419
:102420007F01E91AF108E09EB001E19E700DF09E77
:10243000700D1124672F7727E61BF70BE29F8001B1
:10244000E39F100DF29F100D1124E12F722F4230E7
:10245000510599F048F44115510569F04130510595
:1024600081F0EB2F8D2F07C04430510569F080F0CB
:1024700046305105B1F76E2F8FCFE22F7B2F812F82
:10248000FACFE22F7D2FF7CFEB2F822F712FF3CFD3
:102490007B2F822FED2FEFCF41E00E94B9110895DD
:1024A0000E944C120895CF93DF93762FE901682F95
:1024B000842F0E945012798368838A83DF91CF91A1
:1024C00008958091A902982F9E7F39F48091A902E6
:1024D000817082608093A90208958430B8F70895CE
:1024E00088E090E00E94A3220895CF92DF92EF92BD
:1024F000FF926B017C010E946112B701A60188E086
:1025000090E00E94C122FF90EF90DF90CF9008955D
:10251000E9EAF2E083E0808311828FEF8283838394
:10252000148260817181828193810E947512089565
:102530009091AD02933018F49F5F9093AD02882381
:1025400051F06091A9027091AA028091AB02909122
:10255000AC020E947512089581E00E9498120895BD
:102560009091AD02992319F091509093AD02882378
:1025700051F06091A9027091AA028091AB029091F2
:10258000AC020E947512089581E00E94B012089575
:1025900070E00E94BF140895609103018091A90228
:1025A00080FF0BC08091020123E0829FC0011124B3
:1025B00082559D4F0E94C812089580910401909108
:1025C000050123E0829FF0011124E255FD4F891798
:1025D00048F71182108212828F5F3396F8CFE9EAB2
:1025E000F2E080818E7F808360817181828193811E
:1025F0000E9475122FEF80E792E0215080409040BA
:10260000E1F700C000000E94CC1208959091A90249
:1026100090FF0EC0909104012091050133E0939F3B
:10262000F0011124E255FD4F921718F00E94CC12D0
:1026300008958183608342839F5F3396F5CFA3E043
:10264000B0E0E5E2F3E10C945A22F82E062F142FA5
:10265000E22E8091A90280FF28C0E82FE695F0E0E5
:10266000E955FE4F9081909364028E7F823059F439
:102670009E012F5F3F4F8F2D0E9453124B81698126
:102680008A810E940613F092AA020093AB02109373
:10269000AC02EE2051F06091A9027091AA028091E3
:1026A000AB029091AC020E9475122396E6E00C9466
:1026B0007622E9EAF2E09181282F4381628188E065
:1026C000890F0E941F13089581E00E9459130895F5
:1026D000E9EAF2E09181282F4381628188EF890F36
:1026E0000E941F13089581E00E9468130895E9EA8B
:1026F000F2E0628128E0620F08F46FEF282F438137
:1027000081810E941F13089581E00E94771308952C
:10271000E9EAF2E0628128E0621B08F460E0282F19
:10272000438181810E941F13089581E00E948813D4
:102730000895E9EAF2E0438128E0420F08F44FEF00
:10274000282F628181810E941F13089581E00E94D9
:1027500099130895E9EAF2E0438128E0421B08F466
:1027600040E0282F628181810E941F13089581E03B
:102770000E94AA13089520E00E941F1308958091DB
:10278000A90280FF18C0817082608093A90266232D
:1027900051F06091A9027091AA028091AB029091D0
:1027A000AC020E9475124091AC026091AB02809124
:1027B000AA020E94BB130895682F81E00E94BF13F4
:1027C000089581E00E94DC130895682F9091A9027A
:1027D00096958FEF890F09F481E00E94BF13089549
:1027E00081E00E94E513089561E00E94BF130895FF
:1027F000E9EAF2E080818160808386950E94F4138B
:1028000008958091A90280FF03C00E94EF120895ED
:102810000E94F813089560E00E94BF13089580910C
:10282000630281112CC00E94F40B811104C00E942C
:102830009D0C0E9488120E9470126093A9027093EE
:10284000AA028093AB029093AC026E7F61F40E9467
:1028500088120E9470126093A9027093AA0280935A
:10286000AB029093AC020E9461128091A90280FF9A
:1028700003C086950E940B1481E080936302089543
:10288000FA01811101C0FB01099508951F93CF93AF
:10289000DF93EC01FB01128111114FC00E94060B66
:1028A0008272CA3CFCE5DF0709F460C030F5C63C23
:1028B000ECE5DE0709F455C060F4C43C9CE5D9079B
:1028C00009F443C008F048C0C33CDC45D9F111E02D
:1028D00034C045E953E164E873E1C83C9CE5D9079D
:1028E000C1F144E653E163E773E1C93CDC4588F19B
:1028F00044E853E165E973E12CC0CE3CFCE5DF0719
:10290000D1F1A0F444EC52E16CEA72E1CC3CECE58C
:10291000DE07F9F046EA53E167EB73E1CD3CDC45B5
:10292000C0F04CEA52E164EC72E113C0C73D8CE5A3
:10293000D80718F0CE35DD4551F6812FDF91CF91C4
:102940001F9108950E940114F8CF40EF53E161EE0A
:1029500073E10E944014F1CF41EE53E160EF73E167
:10296000F8CF43E753E164E673E1F3CF47EB53E17C
:1029700066EA73E1EECF81E00E94F413DECF509A55
:102980004BB14E7F5BB15160EFB7F8949B01220FC2
:10299000331F260F371F280F391F2817390741F417
:1029A000EFBF8FE594E00197F1F700C000000895B4
:1029B000DC016D91CD0178E05BB9000000C067FFDC
:1029C0004BB9660F000000C000C000C04BB900C08A
:1029D0007A9591F7E2CFCF93DF93EC01FB018281EF
:1029E000882309F464C1C430FDE5DF07E0F5CB3F7F
:1029F0009CE5D90730F49E0122503C452431310535
:102A0000D8F50E94090C9093980280939702C231E6
:102A1000ECE5DE0709F41FC108F06EC0C9308CE593
:102A2000D80709F4F2C008F03FC0C530ECE5DE0776
:102A300009F4DBC058F5C3308CE5D80709F4CDC0E4
:102A400008F0CFC0809197028160C230DC4509F464
:102A5000AEC080919702909198020E94170C0E943C
:102A60008A0680E009C0C63AEDE5DE0751F238F487
:102A7000C2369DE5D90729F2DF91CF9108959E01D5
:102A80002E5A3D4523303105B8F7BBCF80919702D0
:102A90008062C730FCE5DF0709F489C008F4B1C0E3
:102AA00080919702806483C0CD309CE5D90709F4FA
:102AB000BAC070F4809197028E7FCB30FCE5DF07BF
:102AC00009F475C008F4A7C0809197028D7F6FC08C
:102AD000CF309CE5D90709F4B6C008F4A8C0C031CE
:102AE000FCE5DF0709F4B3C0C131DC4509F0B1CF23
:102AF000809197028F7B5BC0C1159DE5D90709F4D2
:102B0000B4C098F5CB3FFCE5DF0709F472C0B8F418
:102B1000C4319CE5D90709F4B6C008F4A2C0C53198
:102B2000DC4509F096CF8091970282FB992790F9B6
:102B300021E0922790FB82F990FB83F938C0CD3FCA
:102B40008CE5D80709F477C008F457C0CE3FECE510
:102B5000DE0709F474C0809198028360CF3FDC45A2
:102B600009F077CF8093980274CFC2368DE5D807ED
:102B700009F496C068F4C230EDE5DE0709F48CC0B4
:102B800008F477C0C330DD4509F063CF80E085C02D
:102B9000CE3A9DE5D907E9F068F490919702892F24
:102BA0008E7F90FF8160C63ADD4509F052CF809359
:102BB00097024FCFCF3A8DE5D80789F1C03BDD456D
:102BC00009F047CF90919802892F877F93FF886003
:102BD000C9CF809198028860C5CF809197028260AA
:102BE000E6CF809197028460E2CF8091970288605F
:102BF000DECF809198028160B5CF8091980282608B
:102C0000B1CF809197028061D2CF0E948A068091D5
:102C100097028068CCCF809197028C60C8CF80915A
:102C20009802877F9FCF809197028B7FC0CF809142
:102C30009702877FBCCF809198028E7F93CF80913F
:102C400098028D7F8FCF809197028F7EB0CF809139
:102C500097028F7DACCF0E948A06809197028F7772
:102C6000A6CF80919702837FA2CF809198028C7F1C
:102C700079CF80919802982F909591708E7F892BB3
:102C800090FB81F96FCF0E948A0690919702892F5D
:102C900097FB87F980588BCF81E00E94A00CD9CE9A
:102CA00090919702892F8F7E94FF806180CF81E081
:102CB000E3CECF93DF93EB0186319C4511F50E9463
:102CC000060B9A81992399F08A7A91E009F490E0B1
:102CD00090936602811109C089E20E94DE0A0E9477
:102CE000470B80E0DF91CF91089585E3F6CF809187
:102CF0006602811104C089E20E94E60AF0CF85E3F2
:102D0000FBCF81E0EFCF0F931F93CF93DF93C42FBF
:102D1000D22FFC0182818823C9F0409369020E946E
:102D2000FE18909368028093670280E28C0F8830CF
:102D300040F4C77081E001C0880FCA95EAF70E948D
:102D40003B04DF91CF911F910F910895109169027B
:102D5000141332C080916702909168020E94161984
:102D6000883C910548F5C0E2CD0F1D17B9F080E20F
:102D7000810F883040F4177081E001C0880F1A95E8
:102D8000EAF70E944204C83048F481E09D2F977012
:102D900001C0880F9A95EAF70E943B04802F0E9499
:102DA0003204C83070F6D77081E001C0880FDA9520
:102DB000EAF70E944204C5CF80E28C0F883008F603
:102DC000C77081E001C0880FCA95EAF7F2CF0F9370
:102DD0009C01CB01243F4CE5340759F1A8F4293D6F
:102DE000FCE53F0701F12A3D4CE53407D1F1283DD0
:102DF0003C4591F406E221EE41EE68ED7CE50E944F
:102E0000831680E00F910895263FFCE53F07E9F027
:102E1000B0F0273F3C45F9F0FC018281882339F16D
:102E200010926902EFCF07E225EE45EE69ED7CE5F1
:102E3000E6CF06E221EE40EE64EF7CE5E0CF07E26C
:102E400025EE44EE65EF7CE5DACF06E221EE42EEB8
:102E500066EF7CE5D4CF07E225EE46EE67EF7CE532
:102E6000CECF08E221E045EE6AED7CE5C8CF81E0F7
:102E7000C9CF9093AB018093AA01089590936F02FC
:102E800080936E020895E0916E02F0916F02309788
:102E900029F00190F081E02D0995089580E00895D2
:102EA000E0916E02F0916F02309799F020912E011F
:102EB000222359F02091970227FF07C0DC012C91B3
:102EC00011962C93119726E02C930280F381E02D2C
:102ED0000995089520916C0230916D0228173907E9
:102EE00071F090936D0280936C02E0916E02F0910C
:102EF0006F02309721F00680F781E02D0995089543
:102F000020916A0230916B022817390771F0909373
:102F10006B0280936A02E0916E02F0916F0230972B
:102F200021F00084F185E02D09950895FC01329689
:102F300080912E01882321F0809197029EE187FFE6
:102F400096E080E0915008F4089521912223D1F376
:102F50008F5FF8CF662301F120912E012223F1F03B
:102F60002091970227FF1AC0462F46954695469511
:102F70004E3190F4677021E030E002C0220F331F21
:102F80006A95E2F7840F911DFC01828190E028236D
:102F9000392381E0232B69F480E00895FC01329607
:102FA00008962191261721F0E817F907D1F7F4CFF9
:102FB00081E008959C01FC0132969FEF80E04191F1
:102FC000461751F09F3F19F4411101C0982F8F5FB0
:102FD0008630A9F79F3F09F40895290F311D97FD09
:102FE0003A95F90162830895FC0132960896219181
:102FF000261303C0DF0111971C92E817F907B9F7F0
:103000000895E62FE695E695E695EE3168F4E80F2B
:10301000F92FF11D677021E030E001C0220F6A95A1
:10302000EAF78281822B82830895E62FE695E69562
:10303000E695EE3170F4E80FF92FF11D677021E08D
:1030400030E001C0220F6A95EAF72095828128239B
:103050002283089520912E01222339F02091970296
:1030600027FF03C00E94011808950E94DA170895EF
:1030700020912E01222339F02091970227FF03C0CF
:103080000E94151808950E94F4170895FC013296C5
:1030900080912E01882351F08091970287FF06C00E
:1030A0008EE1DF011D928A95E9F7089586E0F9CF58
:1030B00008950E9458180895811106C081E08093F8
:1030C00070020E945918089582E0F9CF83E080933E
:1030D00070020E94591808950E945C18089581E0BA
:1030E000809370020E94591808950E946F180895E5
:1030F000089508950E9479180895089508950E94EA
:1031000078180895CF930E947D180E945F100E9446
:103110007E18C0E08C2F0E949B0F892B31F4CF5F6B
:10312000C430C1F780E0CF91089581E0FCCF85B72E
:10313000806885BF85B7806885BF08951F921FB6D8
:103140001F9211248F939F93AF93BF93809171022D
:10315000811113C08091080390910903A0910A0383
:10316000B0910B034196A11DB11D8093080390936C
:103170000903A0930A03B0930B03BF91AF919F91F2
:103180008F911F901FBE1F9018958091100384305F
:1031900031F10E94C6021092710288E190E020E4B1
:1031A0000FB6F894A895809360000FBE209360003E
:1031B00083B7817F846083BF83B7816083BF789446
:1031C000889583B78E7F83BF0FB6F894A8958091BA
:1031D0006000886180936000109260000FBE0895C7
:1031E0000E948A060E94CB02089582E084BD93E08B
:1031F00095BD9AEF97BD80936E0008952FB7F89410
:103200008091080390910903A0910A03B0910B03E8
:103210002FBF08952FB7F8946091080370910903A8
:1032200080910A0390910B032FBF08959C014FB723
:10323000F8948091080390910903A0910A03B0913A
:103240000B034FBF821B930B089578941F921FB6F8
:103250001F9211248F939F93AF93BF938091080384
:1032600090910903A0910A03B0910B030196A11D4F
:10327000B11D8093080390930903A0930A03B093B0
:103280000B03BF91AF919F918F911F901FBE1F9015
:10329000189581E08093E00080E28093D80010923E
:1032A000C9008FE19EE40197F1F700C0000087E0BC
:1032B00090EBDC018093190390931A03A0931B03F6
:1032C000B0931C0388E19CE00FB6F894A895809316
:1032D00060000FBE90936000FFCF88E19CE00FB6C6
:1032E000F894A895809360000FBE90936000FFCF84
:1032F0008091950208950895CF93DF93EC0180911A
:103300002E018823B1F18091970287FF32C060E2DD
:1033100082E08093E9008FEF9091E800815095FD65
:1033200006C095ED9A95F1F700008111F5CF8091D7
:10333000E80085FF1BC080912E0170E050E040E066
:10334000811104C050E040E068E070E0CE010E94CE
:10335000191C8091E8008E778093E80080E2FE01DE
:10336000A5E7B2E001900D928A95E1F7DF91CF9148
:10337000089568E081E0CDCF80937202709374026B
:103380006093730280911003843001F582E0809392
:10339000E9008FEF9091E800815095FD06C095ED12
:1033A0009A95F1F700008111F5CF8091E80085FF33
:1033B0000DC050E040E063E070E082E792E00E94E0
:1033C000191C8091E8008E778093E8000895BC0175
:1033D00084E00E94BC190895BC0183E00E94BC19DE
:1033E0000895089580910F03811109C00E94A91DBD
:1033F0000E94061E8091E20084608093E20008959E
:1034000010920F0308950E946F18089560910C03A5
:1034100081E0611101C080E00E94661808959091DA
:10342000100381E0943009F080E060910C030E9469
:103430006C18089542E061EC81E00E94251D42E293
:1034400061EC82E00E94251D42E061EC83E00E9475
:10345000251D42E160E885E00E94251D42E161E80A
:1034600084E00E94251D9091100381E0943009F0C2
:1034700080E060910C030E945C1808958091120313
:10348000833009F462C050F48130D9F1823009F4FC
:10349000A4C087E091E00E947A2156C08A3009F4E6
:1034A0008BC08B3009F46EC0893099F7809111037D
:1034B000813279F78091150390911603029748F7AE
:1034C0008091E800877F8093E8008091E80082FF88
:1034D00037C09091F3008091F200029731F480910F
:1034E000F100813011F0863021F48091F100809359
:1034F00095028091E8008B778093E8000E94591D27
:10350000C8CF80911103813A21F68091E800877F2E
:103510008093E8008091150390911603892B61F444
:1035200060E285E792E070E00E94681C8091E8000C
:103530008B778093E800ADCF60E090E080E0F3CF40
:10354000809110038111C1CF089580911103813AB8
:1035500009F09FCF8091150390911603892B09F0F4
:1035600098CF8091E800877F8093E8008091E80001
:1035700080FFFCCF80912E018093F1008091E800C4
:103580008E77BACF80911103813209F082CF80917A
:10359000150390911603892B09F07BCF8091E800E9
:1035A000877F8093E8000E94591D809113038093C8
:1035B0002E010E948A066DCF80911103813209F09D
:1035C00068CF8091E800877F8093E8000E94591DB2
:1035D00080911403809396025CCF80911103813A0D
:1035E00009F057CF8091E800877F8093E8008091B1
:1035F000E80080FFFCCF80919602BECF82E090E091
:1036000090931A018093190187E091E00E943E2176
:1036100008950895CF93DF9387E091E00E94E5201D
:10362000EC01209719F4DF91CF91089587E091E0A4
:103630000E940E210E94091B2197F3CFCF93C091C6
:10364000E9002091EC00922F917020FD90E82091EC
:10365000170120FF12C0CF70C92B909108019F70F5
:103660009093E9009091EB0090FF04C09091EE00E0
:1036700097FD05C0CF70C093E900CF9108959FEFEB
:103680002091E800915025FD06C025ED2A95F1F71F
:1036900000009111F5CF8093F10087E091E00E9446
:1036A000A0208091E80080FFE5CF8091E8008E7730
:1036B0008093E800DFCF84B7877F84BF0FB6F8948C
:1036C000A8958091600088618093600010926000EE
:1036D0000FBE80E890E00FB6F8948093610090935D
:1036E00061000FBE0E94751808950E94A91D0E94D6
:1036F000061EE2EEF0E080818460808378940E9470
:103700008520089582E291E00E943E1708958091FD
:103710001003853031F480911003853019F00E9438
:10372000F01808950E94C51880910E03882399F31C
:103730000E948218882379F30E94031C0E948A0643
:10374000EACF0E940A1B87E091E00E94CE200895F4
:103750000E94AB1B0895292F33272330310519F11F
:1037600068F42130310509F444C02230310509F4F0
:1037700045C090E080E030E020E025C021323105F6
:1037800049F122323105A9F780E490E029E333E0E2
:1037900061157105C1F08DE690E02CEC32E06130EE
:1037A000710589F0E6CF99278130910581F0009766
:1037B00029F00297F1F6ECEFF1E002C0EEE3F2E05F
:1037C000849190E09F01FA01318320830895EAE11A
:1037D000F2E0F6CF89E090E024E532E06115710572
:1037E00091F389E090E02DE632E06130710559F304
:1037F000C0CF82E190E02AEB32E0E5CF88E790E0AD
:1038000022E432E0E0CF80E189BD82E189BD09B4E4
:1038100000FEFDCF8091D8008F7D8093D8008091ED
:10382000E00082608093E0008091E00081FDFCCFA9
:103830000895AF92BF92CF92DF92FF920F931F93A2
:10384000CF93DF936C01EB018A010E94781DF82E63
:10385000811123C00115110539F0F8018081918192
:10386000C81BD90BC80ED91EB12CA12C2097A9F0CA
:103870008091E80085FD22C08091E8008E778093DA
:10388000E80001151105A1F0F80180819181A80ED1
:10389000B91EB182A08285E0F82E8F2DDF91CF91E5
:1038A0001F910F91FF90DF90CF90BF90AF90089540
:1038B0000E94781D8823D1F2F82EEFCFF601819176
:1038C0006F018093F1002197FFEFAF1ABF0ACECFAF
:1038D000FC01809117039091180386179707A0F0B9
:1038E0006115710529F49091E8009E779093E800A6
:1038F00090E06115710551F4911108C08091E800C4
:1039000082FF34C080E00895BC01F2CF80911003A3
:103910008823C1F18530C1F18091E80083FD30C07A
:103920008091E80082FDEACF8091E80080FFE1CF3E
:103930008091F3002091F200382F6115710519F084
:103940002830310558F091E02830310509F090E039
:103950002091E8002E772093E800CBCF81918093CF
:10396000F100615071092F5F3F4FE7CF8091100345
:10397000882341F0853041F08091E80083FFBECF7D
:1039800081E0089582E0089583E00895FC0180912C
:1039900017039091180386179707A0F0611571051A
:1039A00029F48091E8008E778093E80090E061151B
:1039B000710551F4911108C08091E80082FF35C073
:1039C00080E00895BC01F2CF809110038823C9F1F3
:1039D0008530C9F18091E80083FD31C08091E80015
:1039E00082FDEACF8091E80080FFE1CF8091F30073
:1039F0002091F200382F6115710519F0283031053A
:103A000058F091E02830310509F090E08091E8000D
:103A10008E778093E800CBCF84918093F10031962C
:103A2000615071092F5F3F4FE6CF809110038823CB
:103A300041F0853041F08091E80083FFBDCF81E007
:103A4000089582E0089583E00895982F973028F034
:103A50008F708093E90081E008959093E900242F0E
:103A6000762F50E0981731F07091EC002091ED0026
:103A70005091F00021FD02C09F5FE8CF3091EB0034
:103A80003E7F3093EB003091ED003D7F3093ED00B1
:103A90003091EB0031603093EB007093EC00209399
:103AA000ED005093F0002091EE0027FDE5CF80E07F
:103AB00008958091110387FF13C08091E80082FF71
:103AC00006C08091E8008B778093E80004C0809165
:103AD00010038111F2CF0895809110038823D9F348
:103AE0008091E80080FFF8CF8091E8008E77ECCFDE
:103AF0002091E4003091E50095E6A9012091EC00C9
:103B0000822F817020FF06C08091E80080FF06C0F0
:103B100080E008952091E80022FD1AC080911003F2
:103B2000882389F0853089F08091EB0085FD0FC0F6
:103B30002091E4003091E50042175307F9F29150CB
:103B4000E1F684E0089582E0089583E0089581E03D
:103B500008950E94181E0E94201EE0EEF0E0808171
:103B600081608083E8EDF0E080818F77808319BCED
:103B7000A7EDB0E08C918E7F8C9380818F7E8083C7
:103B800010920F0308950F931F93CF93DF930E941A
:103B9000181E0E94201EC8EDD0E088818F77888390
:103BA00088818068888388818F7D888319BC109282
:103BB000100310920C0310920E0310920D0300EEEE
:103BC00010E0F80180818B7F808388818160888309
:103BD00042E060E080E00E94251DE1EEF0E080819F
:103BE0008E7F8083E2EEF0E080818160808380813F
:103BF00088608083F80180818E7F808388818061E6
:103C00008883DF91CF911F910F910895E8EDF0E047
:103C100080818F7E8083E7EDF0E08081816080830A
:103C200084E082BF81E080930F030E94C31D08954A
:103C3000E8EDF0E080818E7F80831092E2000895AD
:103C40001092DA001092E10008951F920F920FB6C1
:103C50000F9211242F933F934F935F936F937F9312
:103C60008F939F93AF93BF93EF93FF938091E10066
:103C700082FF0BC08091E20082FF07C08091E100CB
:103C80008B7F8093E1000E9484208091DA0080FF86
:103C900019C08091D80080FF15C08091DA008E7F16
:103CA0008093DA008091D90080FF96C080E189BDC1
:103CB00082E189BD09B400FEFDCF81E0809310034D
:103CC0000E94F2198091E10080FF19C08091E2000A
:103CD00080FF15C08091E2008E7F8093E20080918A
:103CE000E20080618093E2008091D800806280933E
:103CF000D80019BC85E0809310030E94061A8091B9
:103D0000E10084FF2BC08091E20084FF27C080E1A6
:103D100089BD82E189BD89B5982F917080FFFBCF65
:103D20008091D8008F7D8093D8008091E1008F7EB4
:103D30008093E1008091E2008F7E8093E200809189
:103D4000E20081608093E20080910C03882309F4F3
:103D500049C084E0809310030E940F1A8091E10013
:103D600083FF29C08091E20083FF25C08091E1009C
:103D7000877F8093E10082E08093100310920C0310
:103D80008091E1008E7F8093E1008091E2008E7F40
:103D90008093E2008091E20080618093E20042E043
:103DA00060E080E00E94251D8091F0008860809393
:103DB000F0000E94031AFF91EF91BF91AF919F9184
:103DC0008F917F916F915F914F913F912F910F90C4
:103DD0000FBE0F901F90189519BC109210030E94EF
:103DE000001A70CF8091E30087FD93E09093100359
:103DF000B3CF1F920F920FB60F9211242F933F93C0
:103E00004F935F936F937F938F939F93AF93BF93E2
:103E1000CF93DF93EF93FF93D091E900DF70809110
:103E2000EC00C82FC17080FDC0E81092E9008091BD
:103E3000F000877F8093F00078940E943D1F1092DD
:103E4000E9008091F00088608093F000CD2BCF7066
:103E5000C093E900FF91EF91DF91CF91BF91AF91B6
:103E60009F918F917F916F915F914F913F912F9192
:103E70000F900FBE0F901F901895AAE2B0E0E3E4F8
:103E8000FFE10C945D2281E193E02091F100FC01BF
:103E90002193CF01F3E089319F07B9F70E943E1AC1
:103EA0008091E80083FF1EC180911103909112035D
:103EB0009A3008F017C1E92FF0E0EF50FD4D0C9457
:103EC0004822803899F0823809F00CC1809115039E
:103ED0008F70873008F006C18093E9008091EB0075
:103EE00085FB882780F91092E90006C080910D03B8
:103EF00090910E03911182609091E800977F9093CA
:103F0000E8008093F1001092F1008091E8008E7734
:103F1000E5C0882309F4D3C0823009F0E3C0809162
:103F200013038111D6C0809115038F702FEF280FD6
:103F3000263008F0D7C08093E9002091EB0020FFE5
:103F4000C8C0933031F48091EB0080628093EB0025
:103F5000C0C09091EB0090619093EB0021E030E0C5
:103F600001C0220F8A95EAF72093EA001092EA0036
:103F70008091EB008860EACF8111B4C010911303E7
:103F80001F778091E3008078812B8093E3008091FC
:103F9000E800877F8093E8000E94591D8091E80027
:103FA00080FFFCCF8091E30080688093E30082E093
:103FB000111183E08093100395C08058823008F07F
:103FC00091C080911303909114038C3D23E09207DC
:103FD000A1F583E08A838AE289834FB7F894DE01F2
:103FE000139620E03EE051E2E32FF0E050935700BB
:103FF000E49120FF03C0E295EF703F5FEF708E2FDA
:1040000090E0EA30C0F0C7968D939D932F5F2431E6
:1040100059F74FBF8091E800877F8093E8006AE2FC
:1040200070E0CE0101960E94681C8091E8008B77B9
:104030008093E80057C0C096E7CF60911503709158
:104040001603AE014F5F5F4F0E94A81BBC01892B76
:1040500009F448C09091E800977F9093E800898127
:104060009A810E94C61CE1CF8038E1F58091E8007A
:10407000877F8093E80080910C038093F10045CF07
:10408000811130C090911303923060F58091E80067
:10409000877F8093E80090930C030E94591D8091C4
:1040A0000C03882311F084E005C08091E30087FDB4
:1040B000FACF81E0809310030E941A1A13C08091F6
:1040C0001303813079F481E0933009F080E080932C
:1040D0000E031092E9008091E800877F8093E8004A
:1040E0000E94591D8091E80083FF0AC08091E8007A
:1040F000877F8093E8008091EB0080628093EB00E3
:10410000AA96E3E00C9479220895CF93809110034E
:104110008823A1F0C091E900CF709091EC00892F25
:10412000817090FD80E8C82B1092E9008091E80032
:1041300083FD0E943D1FCF70C093E900CF91089589
:1041400020911003243041F5FC014489558966898A
:104150007789452B462B472BF9F081818F7080930F
:10416000E9009091F3008091F200892B11F480E036
:1041700008959091E8008091E8008E778093E800A0
:1041800095FDF5CF0E94781D811107C09091E80040
:104190009E779093E800089582E00895209110039F
:1041A000243091F4FC014489558966897789452B2F
:1041B000462B472B49F021812F702093E900209155
:1041C000E80020FD0E94A0200895209110032430D3
:1041D00019F090E080E00895FC01448955896689D2
:1041E0007789452B462B472BA1F386818F708093CF
:1041F000E9008091E80082FFECCF9091F30080917C
:10420000F200009731F42091E8002B772093E8002A
:1042100008959091F3008091F20008952091100389
:10422000243019F08FEF9FEF0895FC0144895589E0
:1042300066897789452B462B472BA1F386818F70A2
:104240008093E9008091E80082FFECCF9091F30029
:104250008091F200892B79F08091F10090E030910B
:10426000F3002091F200232B29F42091E8002B7712
:104270002093E80008958FEF9FEFF1CFA8E0B0E022
:10428000E4E4F1E20C945C228C0180911003843010
:1042900059F5F80184899589A689B789892B8A2BD4
:1042A0008B2B11F183858F708093E90088E0EFE21A
:1042B000F1E0DE01119601900D928A95E1F750E050
:1042C00040E068E070E0CE0101960E94191C50E0C9
:1042D00040E062E070E0C80142960E94191C8091A3
:1042E000E8008E778093E8002896E4E00C9478222A
:1042F00008950895CF93DF93EC018091E80083FF48
:1043000010C0288180911503909116032817190673
:1043100041F4809112038132E9F030F4803209F4E3
:104320004EC0DF91CF910895823209F47BC0833271
:10433000C1F7809111038132A1F78091E800877F56
:104340008093E8000E94591D60911303CE010E94E2
:104350007921E7CF80911103813A19F78091E80024
:10436000877F8093E8008091E80080FFFCCF8C89F4
:104370009D89AE89BF898093F100492F5A2F6B2FF9
:1043800077274093F100AD01662777274093F1002E
:104390008B2F9927AA27BB278093F100888D8093C4
:1043A000F100898D8093F1008A8D8093F1008091D6
:1043B000E8008E778093E8000E94591DB2CF80916B
:1043C0001103813209F0ADCF8091E800877F80939F
:1043D000E8008091E80082FF20C03091F100209138
:1043E000F1009091F1008091F1003C8B2D8B9E8B20
:1043F0008F8B8091F100888F8091F100898F80915F
:10440000F1008A8F8091E8008B778093E8000E940A
:10441000591DCE010E94782184CF80911003811113
:10442000D8CF7FCF80911103813209F07ACF80916C
:10443000E800877F8093E8000E94591D8091130354
:1044400090911403998B888BCE010E94782169CFBB
:10445000991B79E004C0991F961708F0961B881FD6
:104460007A95C9F780950895AA1BBB1B51E107C037
:10447000AA1FBB1FA617B70710F0A61BB70B881FF4
:10448000991F5A95A9F780959095BC01CD01089583
:10449000EE0FFF1F0590F491E02D09942F923F92AB
:1044A0004F925F926F927F928F929F92AF92BF9244
:1044B000CF92DF92EF92FF920F931F93CF93DF93F0
:1044C000CDB7DEB7CA1BDB0B0FB6F894DEBF0FBE4D
:1044D000CDBF09942A88398848885F846E847D849A
:1044E0008C849B84AA84B984C884DF80EE80FD809C
:1044F0000C811B81AA81B981CE0FD11D0FB6F89412
:10450000DEBF0FBECDBFED010895FB01DC0104C08D
:104510008D910190801921F441505040C8F7881BBB
:10452000990B0895FB01DC0102C001900D924150EE
:104530005040D8F70895F999FECF92BD81BDF89A01
:10454000992780B50895A6E1B0E044E050E00C94CE
:10455000D522A8E1B0E042E050E00C94D522262F0D
:10456000F999FECF92BD81BDF89A019700B4021669
:1045700039F01FBA20BD0FB6F894FA9AF99A0FBE17
:1045800008950396272F0E94B0220E94AF22252F64
:104590000E94B022242F0C94B0220196272F0E9453
:1045A000B0220C94AF22DC01CB01FC01F999FECFC3
:1045B00006C0F2BDE1BDF89A319600B40D924150AB
:1045C0005040B8F70895F894FFCF84048404B504EC
:1045D000B5044205E404E404E4045E05CF05DE0509
:1045E000DE05611F891F7220891F7220BC1FDD1F1D
:0645F0007220342040207F
:1045F6002402001E001E1E02841000000105100089
:104606000001830800000100000000000000000017
:10461600000078197C19F119EC19E7197B1901A129
:1046260020000000000200E200E900EA00B500B642
:1046360000B700CD008301CC008A019201940121CC
:1046460002230224022502260227022A02B300B40C
:10465600006F007000818283E200E900EA00B50085
:10466600B600B700CD008301CC008A019201940107
:104676002102230224022502260227022A02B3006F
:10468600B4006F007000818283946697C634353615
:0A469600323331F4F5F6F7000100AD
:00000001FF
